:100000000C94F9000C9416010C9416010C94160132
:100010000C9416010C9416010C9416010C94160104
:100020000C9416010C9416010C9416010C941601F4
:100030000C9416010C9416010C9416010C941601E4
:100040000C94CF0A0C9416010C9416010C94160112
:100050000C9416010C9416010C9416010C941601C4
:100060000C9416010C9416010C9416010C941601B4
:100070000C9416010C9416010C941601084AD73BF7
:100080003BCE016E84BCBFFDC12F3D6C74319ABD67
:1000900056833DDA3D00C77F11BED9E4BB4C3E918B
:1000A0006BAAAABE000000803F072C7AA5BA6CC5D7
:1000B00090DA3B9365FC8BBC53F810FD3C56928361
:1000C0004DBD879D3AB63DCBC9BF5BBE73DA0FC944
:1000D0003F05A84CCDB2D44EB93836A9020C50B960
:1000E000918688083CA6AAAA2ABE000000803F6E1E
:1000F000616E00696E660000407A10F35A00A072CB
:100100004E18090010A5D4E80000E8764817000052
:10011000E40B54020000CA9A3B000000E1F5050020
:100120000080969800000040420F000000A0860169
:10013000000000102700000000E803000000006439
:1001400000000000000A00000000000100000000A4
:10015000002C76D888DC674F0823DFC1DFAE59E179
:10016000B1B796E5E3E453C63AE651997696E8E6E8
:10017000C28426EB898C9B62ED407C6FFCEFBC9CBB
:100180009F40F2BAA56FA5F490055A2AF75C936BCD
:100190006CF9676DC11BFCE0E40D47FEF520E6B588
:1001A00000D0ED902E0300943577050080841E0862
:1001B0000000204E0A000000C80C333333330F9880
:1001C0006E12831141EF8D2114893BE65516CFFE47
:1001D000E6DB18D1844B381BF77C1D901DA4BBE4D3
:1001E00024203284725E228100C9F124ECA1E53D15
:1001F000270011241FBECFEFD0E1DEBFCDBF11E03D
:10020000A0E0B1E0E8ECF9E202C005900D92AE3654
:10021000B107D9F711E0AEE6B1E001C01D92A13CF3
:10022000B107E1F70E94A00E0C94E2140C940000B8
:10023000A1E1B0E0EEE1F1E00C94E6123C017F8731
:100240006E876A01FC0117821682838181FD03C0DB
:100250006FEF7FEF6FC39E012F5F3F4F398B288B6E
:10026000F3012381EE85FF8523FD859123FF819195
:10027000FF87EE87882309F45AC3853251F4EE854F
:10028000FF8523FD859123FF8191FF87EE878532CE
:1002900029F490E0B3010E941F14E2CF982F10E0E0
:1002A000882499241032B0F49B3269F09C3228F4EF
:1002B000903251F0933271F40BC09D3239F090338B
:1002C00049F4116028C01260146025C0186023C072
:1002D000106121C017FD2AC0892F80538A3078F41D
:1002E00016FF06C0FAE09F9E902C1124980E13C0B2
:1002F0003AE0839E802C1124880E10620CC09E323E
:1003000021F416FD14C3106406C09C3611F4106865
:1003100002C0983659F4EE85FF8523FD959123FFA1
:100320009191FF87EE87992309F0BCCF892F8554DF
:10033000833020F4812F8061905E07C0892F85561D
:10034000833008F09FC1812F8F7E86FD02C076E04A
:10035000972E6FE3F62EF822953619F4F0E4FF2A73
:1003600007C0963619F420E8F22A02C091109A9438
:10037000F7FE0AC03BE3391518F45CE3B52E02C062
:10038000B92CB39427E009C047E0491520F4BB24F9
:1003900047E0942EF7CF292DBB24C60104969D87F4
:1003A0008C87F6016081718182819381AE014F5FFC
:1003B0005F4F0B2D0E9431136C010981202E3324D5
:1003C00000FF04C003FD02C01DE209C0F1FE02C02F
:1003D0001BE205C0F2FC02C010E001C010E2C10146
:1003E0008C709070892BB9F1112311F483E001C056
:1003F00084E0881510F088240AC0881AF3FC07C02E
:1004000080E290E0B3010E941F148A94C9F711237F
:1004100029F0812F90E0B3010E941F1423FE03C036
:100420000FEE10E00EC003EF10E00BC0E114F1047A
:1004300009F0805290E0B3010E941F140F5F1F4F1C
:1004400005C0EF2CFF24F0E1EF22FF24F801849196
:10045000882361F714C1F7FE12C0BC0C24FE04C04F
:100460008A81813309F4BA941B141CF0BB24B39421
:100470002DC0F8E0FB1550F538E0B32E27C0F6FC90
:1004800025C0892D90E08C159D054CF02CEFC216EF
:100490002FEFD20624F030E8F32A01C09A94992075
:1004A00049F0E2E0F0E0EC0FFD1FE90DF11D808165
:1004B0008033A1F3F7FE0AC0B92CB394892D90E0E4
:1004C000C816D90614F0992401C09C18F7FC03C083
:1004D00025E030E009C01C141D041CF021E030E0D0
:1004E00003C096012F5F3F4F112311F02F5F3F4F45
:1004F000992029F0892D90E00196280F391F882D29
:1005000090E02817390714F0882401C0821A4F2C74
:100510005524C20189709070892B39F008C080E29F
:1005200090E0B3010E941F148A948820C1F7112320
:1005300029F0812F90E0B3010E941F1443FE07C0F1
:1005400008C080E390E0B3010E941F148A948820C1
:10055000C1F7F7FE46C08601D7FE02C000E010E0FA
:1005600076010894E11CF11CE01AF10A41E050E028
:100570004C0F5D1FE40EF51E26014B185108892D06
:1005800090E0AA24BB24A81AB90A5FEF0F3F150711
:1005900029F48EE290E0B3010E941F14C016D10628
:1005A00034F0401651061CF4F701808101C080E34D
:1005B000015010400894E11CF11C0A151B052CF099
:1005C00090E0B3010E941F14E0CF0C151D0539F413
:1005D0009A81963318F4953311F424FE81E390E068
:1005E0004BC08A81813309F00F7E90E0B3010E94F5
:1005F0001F149920A1F08EE290E0B3010E941F1415
:1006000012E0E1E0F0E0EC0FFD1FE10FF11D1F5FD4
:10061000808190E0B3010E941F149A9491F744FCEA
:1006200003C085E690E002C085E490E0B3010E943B
:100630001F14D7FC05C0C114D10441F404FF06C047
:10064000D094C194D108D3948DE201C08BE290E0A4
:10065000B3010E941F1480E305C08F5F26EF3FEFB8
:10066000C20ED31E3AE0C316D104BCF790E0B3012A
:100670000E941F14C601C096B3010E941F14CC84AF
:10068000DD8452C1933631F0933799F0933509F0F8
:1006900059C023C0F601808189835E010894A11CA2
:1006A000B11C22E030E0C20ED31E21E0E22EF12C7C
:1006B00012C0F601A080B18016FD03C06FEF7FEF7E
:1006C00002C0692D70E022E030E0C20ED31EC501E9
:1006D0000E9414147C011F7713C0F601A080B18022
:1006E00016FD03C06FEF7FEF02C0692D70E022E0BE
:1006F00030E0C20ED31EC5010E9409147C011068AF
:1007000013FF07C01BC080E290E0B3010E941F14DA
:100710008A94882D90E0E816F906A8F30FC0F50139
:1007200017FD859117FF81915F0190E0B3010E9451
:100730001F1481108A940894E108F108E114F1046F
:1007400071F7F2C0943611F0993689F517FF08C099
:10075000F601208131814281538184E090E00AC01A
:10076000F601808191819C01442737FD4095542FEB
:1007700082E090E0C80ED91E9FE6F92EF12257FFC5
:1007800009C050954095309521953F4F4F4F5F4F91
:1007900090E8F92ACA01B901AE014F5F5F4F2AE024
:1007A00030E00E948414E82EE889EE1A41C09537A3
:1007B00021F41F7E2AE030E01CC0197F9F3661F0D3
:1007C000903720F4983509F0B2C00FC0903739F057
:1007D000983709F0ACC004C028E030E00AC01061CE
:1007E00014FD146020E130E004C014FD166020E127
:1007F00032E017FF08C0F601608171818281938128
:1008000044E050E008C0F60180819181BC0180E0A5
:1008100090E042E050E0C40ED51EAE014F5F5F4F46
:100820000E948414E82E5889E51A8FE7F82EF122E9
:10083000F6FE0BC08EEFF822E91438F4F4FE07C080
:10084000F2FC05C09FEEF92202C01E2D01C0192D39
:10085000F4FE0DC0FE01EE0DF11D8081803319F410
:10086000E9EEFE2208C01F5FF2FE05C003C08F2D17
:10087000867809F01F5F0F2DF3FC14C0F0FE0FC047
:10088000181510F09E2C0BC09E2C980C911A182D48
:1008900006C080E290E0B3010E941F141F5F18158C
:1008A000C0F304C0181510F4811A01C0882404FF95
:1008B0000FC080E390E0B3010E941F1402FF1DC02F
:1008C00001FD03C088E790E00EC088E590E00BC012
:1008D000802F867891F001FF02C08BE201C080E298
:1008E000F7FC8DE290E0B3010E941F1406C080E384
:1008F00090E0B3010E941F149A94E914C0F3EA94A3
:10090000E1E0F0E0EC0FFD1FEE0DF11D808190E0C5
:10091000B3010E941F14EE2091F706C080E290E020
:10092000B3010E941F148A948820C1F799CCF30167
:1009300066817781CB016196E2E10C9402138064B9
:1009400080937C00EAE7F0E086E8808310927B00E9
:1009500080E880937E008081806480830895806435
:1009600080937C0080917A00806480937A008091EB
:100970007A0084FFFCCF9091780080917900382F25
:1009800020E0290F311DC9010895AA2797FDA095E0
:10099000BA2FBC01CD010E94A91020E030E044EB49
:1009A00052E40E94DD1120E030E04CED53E40E945F
:1009B0000E100E9476106D527040882777FD80954A
:1009C000982F0E94A910089528EB31E0AC01429FB6
:1009D000C001439F900D529F900D1124885A924B55
:1009E0006AE570E00E94B112882777FD8095982F04
:1009F0000E94A9100895AA2797FDA095BA2FBC01BF
:100A0000CD010E94A91027E235E342E75EE30E9490
:100A1000DD1120E030E04FE053E40E94400F0895E4
:100A20009C0197FF03C0309521953F4F8FEE90E0DA
:100A3000AC01249FC001259F900D349F900D11247F
:100A400062E370E00E94B112CB010895AA2797FDDE
:100A5000A095BA2FBC01CD010E94A9102CEE31E265
:100A600046E054E40E94400F0E947610882777FDEC
:100A70008095982F0E94A9102EE338EE49E850E4A3
:100A80000E94DD110E947610CB0108959C0197FF12
:100A900003C0309521953F4FB901882777FD809598
:100AA000982F0E94A91023EC35EF48E150E40E94F2
:100AB000DD11089580912A00806180932A00809141
:100AC0002B00806180932B0080912B008F7E809380
:100AD0002B008FE70E94D50580E00E94D50580E0BD
:100AE0000E94D50580912B00806180932B00089592
:100AF000CF93DF93982FEB0124E0603072071CF056
:100B0000CFEFD3E004C077FF02C0C0E0D0E0809117
:100B10002A00806180932A0080912B00806180935D
:100B20002B0080912B008F7E80932B009F70892F4C
:100B300080620E94D505CE019595879595958795FC
:100B40000E94D5059E012295220F220F207C822F24
:100B50000E94D50580912B00806180932B00DF914E
:100B6000CF910895809124008F7B80932400809101
:100B700025008F7B809325008091240080628093E4
:100B80002400809125008F7D809325008091240092
:100B9000806880932400809125008F7780932500C2
:100BA000249A82E58CBD1DBC08958EBD0DB407FE50
:100BB000FDCF8EB508951092CD0089E08093CC00D2
:100BC000E9ECF0E0808188618083EAECF0E08081EC
:100BD000866080830895982F8091C80085FFFCCFA0
:100BE0009093CE0008958091C80087FFFCCF80913C
:100BF000CE0008956F927F928F929F92AF92BF9294
:100C0000CF92DF92EF92FF920F931F9379018A01A7
:100C100023EC35EF48E450E40E94DD1120E030E0A1
:100C200044E353E40E940E105B016C01C801B7015C
:100C300023EC35EF48E450E40E94DD117B018C0188
:100C4000C601B5010E9440123B014C01C801B70129
:100C500020E030E044E353E40E940E109B01AC011D
:100C6000C601B5010E94410F0E9440127B018C0118
:100C7000C401B30120E030E040EC50E40E94DD11FB
:100C80005B016C01C801B70120E030E040E850E4AE
:100C90000E94DD119B01AC01C601B5010E94410F0C
:100CA0001F910F91FF90EF90DF90CF90BF90AF908A
:100CB0009F908F907F906F9008956F927F928F9208
:100CC0009F92AF92BF92CF92DF92EF92FF920F93DB
:100CD0001F9379018A0123EC35EF48E450E40E9428
:100CE000DD1120E030E044E353E40E940E105B018C
:100CF0006C01C801B70123EC35EF48E450E40E94D1
:100D0000DD117B018C01C601B5010E940B103B0176
:100D10004C01C801B70120E030E044E353E40E94F5
:100D20000E109B01AC01C601B5010E94410F0E944B
:100D30000B107B018C01C401B30120E030E040ECDA
:100D400050E40E94DD115B016C01C801B70120E095
:100D500030E040E850E40E94DD119B01AC01C60187
:100D6000B5010E94410F1F910F91FF90EF90DF900E
:100D7000CF90BF90AF909F908F907F906F9008958D
:100D8000AF92BF92CF92DF92EF92FF920F931F9399
:100D90007B018C0159016A01A80197010E94DD11B4
:100DA0007B018C01C601B501A60195010E94DD11F0
:100DB0009B01AC01C801B7010E94410F20E030E067
:100DC00040E152E40E94400F20E030E040E851E46E
:100DD0000E94400F20E030E040E452E40E940E10F8
:100DE0000E94320F2CE930E345E652E40E94DD1107
:100DF0001F910F91FF90EF90DF90CF90BF90AF9039
:100E000008952F923F924F925F926F927F928F92AE
:100E10009F92AF92BF92CF92DF92EF92FF920F9389
:100E20001F93DF93CF93CDB7DEB728970FB6F89413
:100E3000DEBF0FBECDBF69837A838B839C832D83F6
:100E40003E834F835887C801B7010E9440121B019F
:100E50002C01C801B7010E940B1020E030E040E8EF
:100E600050E40E94DD115B016C01C201B10120E080
:100E700030E040E850E40E94DD1129813A814B8145
:100E80005C810E94DD1120E030E040EC50E40E94E3
:100E9000410F7B018C01C601B5012D813E814F813F
:100EA00058850E94DD119B01AC01C801B7010E9469
:100EB000410F3B014C01C601B50120E030E040ECA0
:100EC00050E40E94410F29813A814B815C810E944C
:100ED000DD117B018C01C201B10120E030E040E86E
:100EE00050EC0E94DD112D813E814F8158850E947A
:100EF000DD119B01AC01C801B7010E94410F9B01AC
:100F0000AC01C401B3010E94B40F2CE930E345E603
:100F100052E40E94DD1128960FB6F894DEBF0FBE92
:100F2000CDBFCF91DF911F910F91FF90EF90DF9098
:100F3000CF90BF90AF909F908F907F906F905F9079
:100F40004F903F902F9008952F923F924F925F9233
:100F50006F927F928F929F92AF92BF92CF92DF92C9
:100F6000EF92FF920F931F935B016C0139014A01CD
:100F70000E94C0061B012C01C601B501A40193010A
:100F8000820171010E94010720E030E040E450EC52
:100F90000E94071087FD03C021E030E01CC08201E1
:100FA000710117FB109517F91095C601B501A40141
:100FB00093010E94010720E030E040E450EC0E94E1
:100FC0000710282F332727FD30952227330F221FA4
:100FD000332721503040C9011F910F91FF90EF90AE
:100FE000DF90CF90BF90AF909F908F907F906F9049
:100FF0005F904F903F902F900895EF92FF921F9334
:10100000CF93DF937C01EB0184E0603078071CF024
:10101000CFEFD3E006C08CEF6130780714F4C1E065
:10102000DCEFCE014D96CB9718F4C0E0D0E002C0C3
:10103000D7FD0DC0E114F104D9F480E090E0BE01C9
:101040000E94780581E090E060E070E00FC0E1145C
:10105000F10471F480E090E060E070E00E947805B7
:10106000662777276C1B7D0B81E090E00E94780556
:1010700010E081E0E816F10409F411E0D7FD0DC09D
:10108000112359F082E090E0BE010E94780583E0D0
:1010900090E060E070E00E947805D7FF10C0112357
:1010A00071F082E090E060E070E00E9478056627D1
:1010B00077276C1B7D0B83E090E00E947805DF9121
:1010C000CF911F91FF90EF90089582E080936E0082
:1010D00014BC83E085BD82E187BD78949FEF9AB907
:1010E0008FE08BB997B998B914B881E085B987E4D6
:1010F00080937C00EAE7F0E086E8808310927B0032
:1011000080E880937E008081806480830895AF9220
:10111000BF92CF92DF92EF92FF920F931F93DF93D4
:10112000CF93CDB7DEB7C05DD7400FB6F894DEBF22
:101130000FBECDBF82E085BD109275011092740183
:101140006E010894C11CD11CF601BE016B507E4F8C
:1011500022C0809174019091750183579140CCF326
:1011600080917A0084FFF5CF2091780090917900EA
:1011700080917A00806480937A00592F40E0CA0100
:10118000820F911D819391931092750110927401B9
:1011900088B1809588B9E617F707D9F6EE24FF24C1
:1011A00080E0A82E81E0B82E00D000D000D00DB78E
:1011B0001EB70F5F1F4FEDB7FEB7B282A182F801D5
:1011C000F382E282F601619171916F01882777FDC8
:1011D0008095982F0E94A91020E030E44CE955E456
:1011E0000E94DD1120E030EC4FE754E40E940E1025
:1011F0000E947610F801758364830E944B14089452
:10120000E11CF11C8DB79EB706960FB6F8949EBFF1
:101210000FBE8DBF9AEFE916F10431F683E085BD6C
:101220001092750110927401C053D84F0FB6F89404
:10123000DEBF0FBECDBFCF91DF911F910F91FF9009
:10124000EF90DF90CF90BF90AF900895AF92BF9294
:10125000CF92DF92EF92FF920F931F9318990FC0D6
:101260008CE49DE190933B0180933A0181E090E012
:10127000909377018093760181E080937C011999A6
:101280000FC087E791E090933B0180933A0184E19E
:1012900090E0909377018093760181E080937C01C8
:1012A0001A990FC08BE490E090933B0180933A0130
:1012B00084E690E0909377018093760181E08093BB
:1012C0007C011B9902C00E94870880917C018823C1
:1012D00009F452C180914001882331F010924001FD
:1012E0000E94F3058093AC018091AC01833719F41F
:1012F00081E080937D018091700190917101892B33
:1013000009F04FC06091740170917501882777FDD5
:101310008095982F0E94A9105B016C0160913A01A1
:1013200070913B01882777FD8095982F0E94A91026
:101330009B01AC010E94410F7B018C0160E070E0D9
:1013400088EC92E420913C0130913D0140913E01B6
:1013500050913F010E94400F9B01AC01C801B701B1
:101360000E94DD1120E030E048EC52E40E940E10B3
:101370009B01AC01C601B5010E94D21118168CF474
:10138000109275011092740116BC8FEF88B981E03C
:1013900090E090937901809378019093710180930C
:1013A00070018091700190917101019709F040C026
:1013B0006091740170917501882777FD8095982F51
:1013C0000E94A9107B018C0160913A0170913B0150
:1013D000882777FD8095982F0E94A9109B01AC016A
:1013E0000E94410F20913C0130913D0140913E010E
:1013F00050913F010E94DD1120E030E048EC52E4C2
:101400000E940E109B01AC01C801B7010E94D211CD
:10141000181674F4109275011092740116BC18B865
:10142000109279011092780110927101109270015E
:1014300080917A0084FF61C0809172019091730164
:101440008D5D95400CF459C0309178002091790061
:10145000722F60E0630F711D70937B0160937A01BE
:10146000882777FD8095982F0E94A91020EF37EAF2
:1014700046EC5DE30E94DD1160933C0170933D01F9
:1014800080933E0190933F0120E030E040E251E440
:101490000E940710882364F480E090E0A0E2B1E4A9
:1014A00080933C0190933D01A0933E01B0933F0196
:1014B00060913C0170913D0180913E0190913F010E
:1014C00020E030E044EB52E40E94D211181664F49C
:1014D00080E090E0A4EBB2E480933C0190933D0166
:1014E000A0933E01B0933F011092730110927201DC
:1014F00080917A00806480937A0080917D018823B6
:10150000D9F18DB79EB70C970FB6F8949EBF0FBE5A
:101510008DBFEDB7FEB7319687E091E0ADB7BEB7AE
:1015200012969C938E93119780913C0190913D016E
:10153000A0913E01B0913F0182839383A483B58340
:1015400080917601909177019783868380917801CD
:10155000909179019187808780917A0190917B01A8
:10156000938782870E944B148DB79EB70C960FB657
:10157000F8949EBF0FBE8DBF1F910F91FF90EF900B
:10158000DF90CF90BF90AF90089582E080936E007F
:1015900084BD85E085BD83EB87BD789408951F9257
:1015A0000F920FB60F9211248F939F9381E090E0DA
:1015B00090938101809380018091820190918301B9
:1015C0000196909383018093820180918401909190
:1015D0008501019690938501809384019F918F915D
:1015E0000F900FBE0F901F90189560917E01709123
:1015F0007F0180E090E00E94780560914101709148
:10160000420181E090E00E94780580E094EB019730
:10161000F1F7809143019091440140917E015091F6
:101620007F0120914101309142010197A1F4CA014B
:10163000039690937F0180937E0123503040309336
:1016400042012093410181509440CCF0109244011A
:10165000109243010895CA01039790937F018093EC
:101660007E012D5F3F4F309342012093410197FF50
:1016700006C081E090E09093440180934301089577
:101680008F929F92AF92BF92CF92DF92EF92FF9292
:101690000F931F93CF93DF938C016115710509F0B0
:1016A000ABC0809157019091580189519C4F21F412
:1016B0001093580100935701809157019091580160
:1016C0008017910741F01093580100935701109231
:1016D00087011092860182E090E00E94AF040E9490
:1016E000C5040E9476105B017093AE016093AD015A
:1016F0009801261B370B3093B6012093B501C90121
:101700006AE070E00E94B112EB0180918601909135
:101710008701C80FD91FD0938701C0938601C0905D
:101720009401D0909501CA18DB08D092B001C09204
:10173000AF012C5F3F4F2930310520F41092B601E4
:101740001092B50160914501709146018091470169
:10175000909148010E9476102091B5013091B60118
:10176000AB01249FB001259F700D349F700D112493
:10177000882777FD8095982F0E94A9107B018C0106
:10178000BE01882777FD8095982F0E94A91020918F
:10179000490130914A0140914B0150914C010E9406
:1017A000DD119B01AC01C801B7010E94410F7B0113
:1017B0008C01B601882777FD8095982F0E94A9108B
:1017C00020918C0130918D0140918E0150918F01BB
:1017D0000E94DD119B01AC01C801B7010E94410FBD
:1017E0000E9476109B017093990160939801B092CA
:1017F0009501A0929401C1C06130710519F020E0FB
:1018000030E0BBC08091590190915A0189519C4FA1
:1018100021F410935A01009359018091590190913C
:101820005A018017910781F010935A0100935901D2
:1018300080E090E0A0E0B0E080938801909389017F
:10184000A0938A01B0938B0183E090E00E94AF04E3
:101850000E94FB040E9476104B017093AE016093CE
:10186000AD01061B170B1093B6010093B501C8011B
:101870006AE070E00E94B112882777FD8095982F6A
:101880000E94A910209188013091890140918A011C
:1018900050918B010E94410F5B016C0160938801A4
:1018A0007093890180938A0190938B01C091960176
:1018B000D0919701C819D909D093B001C093AF0155
:1018C0000C5F1F4F0930110520F41092B6011092E1
:1018D000B50160914D0170914E0180914F01909141
:1018E00050010E9476102091B5013091B601AB01F4
:1018F000249FB001259F700D349F700D11248827FF
:1019000077FD8095982F0E94A9107B018C01C6015C
:10191000B5012091510130915201409153015091F4
:1019200054010E94DD119B01AC01C801B7010E9466
:10193000410F7B018C01BE01882777FD8095982F90
:101940000E94A91020919001309191014091920143
:10195000509193010E94DD119B01AC01C801B701B8
:101960000E94410F0E9476109B0170939B0160932F
:101970009A019092950180929401C901DF91CF91D3
:101980001F910F91FF90EF90DF90CF90BF90AF909D
:101990009F908F900895809180019091810101978F
:1019A00001F56091A4017091A5018091A60190912B
:1019B000A7010E947610DC01CB0160E070E00E947C
:1019C000400B6091A8017091A9018091AA019091AA
:1019D000AB010E947610DC01CB0161E070E00E9457
:1019E000400B80918201909183010497BCF010928A
:1019F000830110928201609198017091990180E0B9
:101A000090E00E94FD0760919A0170919B01709592
:101A100061957F4F81E090E00E94FD0720915D017C
:101A200030915E012230310509F09CC08091840123
:101A300090918501845F91408CF480E090E0A0E07B
:101A4000B0E48093A4019093A501A093A601B09364
:101A5000A70180E090E0A0E0B1E417C0809184018C
:101A600090918501885E9340CCF480E090E0A8EFEF
:101A7000B1E48093A4019093A501A093A601B09333
:101A8000A70180E090E0A8E2B2EC8093A8019093D7
:101A9000A901A093AA01B093AB0164C08091840115
:101AA000909185018C5D95408CF480E090E0A8E6F3
:101AB000B2E48093A4019093A501A093A601B093F2
:101AC000A70180E090E0A2E8B2ECDFCF8091840132
:101AD00090918501805D97408CF480E090E0A0E3D8
:101AE000B2E48093A4019093A501A093A601B093C2
:101AF000A70180E090E0A0EAB2ECC7CF809184011A
:101B000090918501845C99408CF480E090E0A8E39A
:101B1000B2E48093A4019093A501A093A601B09391
:101B2000A70180E090E0AEEBB2ECAFCF80918401F2
:101B300090918501885B9B408CF480E090E0A0EE62
:101B4000B1E48093A4019093A501A093A601B09362
:101B5000A70180E090E0A4E8B2EC97CF1092850155
:101B600010928401349930C02115310521F02130C3
:101B7000310551F511C080E090E0A0EBB1E4809315
:101B8000A4019093A501A093A601B093A70180E0C2
:101B900090E0ACE8B2E410C080E090E0A0E0B0E4F7
:101BA0008093A4019093A501A093A601B093A701EF
:101BB00080E090E0A0E0B1E48093A8019093A901B7
:101BC000A093AA01B093AB01359930C0211531051E
:101BD00021F02130310551F511C080E090E0ACE7F3
:101BE000B2E48093A4019093A501A093A601B093C1
:101BF000A70180E090E0A4E3B2EC10C080E090E0A8
:101C0000A8E6B2E48093A4019093A501A093A60155
:101C1000B093A70180E090E0A2E8B2EC8093A80125
:101C20009093A901A093AA01B093AB01369930C05B
:101C30002115310521F02130310551F511C080E029
:101C400090E0A0EFB1E48093A4019093A501A0934C
:101C5000A601B093A70180E090E0A0E7B2EC10C02D
:101C600080E090E0A8E3B2E48093A4019093A50102
:101C7000A093A601B093A70180E090E0AEEBB2EC98
:101C80008093A8019093A901A093AA01B093AB01FE
:101C900037991AC0232BC1F480E090E0A8E4B2E4A5
:101CA0008093A4019093A501A093A601B093A701EE
:101CB00080E090E0AAEAB2E48093A8019093A901A1
:101CC000A093AA01B093AB0182E090E00E94AF0420
:101CD0000E94C5046093B7017093B8018093B90165
:101CE0009093BA0183E090E00E94AF040E94FB044D
:101CF0006093B1017093B2018093B3019093B401EA
:101D0000089582E090E00E949F040E94B20582E064
:101D100080936E0084BD85E085BD83EB87BD78949C
:101D200081E087B917B818B800D087E191E0EDB726
:101D3000FEB7928381830E944B140F900F900895F9
:101D40000E94AD0E60E072EC81E090E00E94DB0545
:101D50000E94810E0E94CB0CFDCF8FE591E0909305
:101D6000BE018093BD0160E072EC81E090E00E94D2
:101D7000BF0E08950E94EB0580E090E008959B015E
:101D8000AC0184E0220F331F441F551F8A95D1F701
:101D900060E070E489E191E00E94C412215030407B
:101DA0003093C5002093C40088E18093C10086E091
:101DB0008093C2000895982F8091C00085FFFCCFCA
:101DC0009093C6000895FC0107C08091C00085FF74
:101DD000FCCF9093C600319690819923B1F7089576
:101DE0000F931F93DF93CF93CDB7DEB764970FB6F2
:101DF000F894DEBF0FBECDBF2DB73EB728503040A0
:101E00000FB6F8943EBF0FBE2DBFEDB7FEB73196AB
:101E10008E010F5F1F4FADB7BEB712961C930E9386
:101E200011972EE131E03383228395838483778376
:101E300066830E9460142DB73EB7285F3F4F0FB6F0
:101E4000F8943EBF0FBE2DBFC8010E94E30E6496FA
:101E50000FB6F894DEBF0FBECDBFCF91DF911F91BB
:101E60000F9108959F939F77AFD10F9000203AF480
:101E70009058A2EA2AED3FE049E450E413D047C26B
:101E80005058BB27AA270ED042C20BD230F010D236
:101E900020F031F49F3F11F41EF4DBC10EF4E09505
:101EA000E7FBD1C1E92F55D280F3BA176207730758
:101EB0008407950718F071F49EF56DC20EF4E09555
:101EC0000B2EBA2FA02D0B01B90190010C01CA01F4
:101ED000A0011124FF27591B99F0593F50F4503E9F
:101EE00068F11A16F040A22F232F342F4427585F91
:101EF000F3CF469537952795A795F0405395C9F7A9
:101F00007EF41F16BA0B620B730B840BBAF0915060
:101F1000A1F0FF0FBB1F661F771F881FC2F70EC0FF
:101F2000BA0F621F731F841F48F4879577956795D2
:101F3000B795F7959E3F08F0B3CF9395880F08F0BB
:101F40009927EE0F979587950895ABD158F080E8C3
:101F500091E009F49EEFACD128F040E851E059F44B
:101F60005EEF09C076C117C2E92FE078F2D168F3BD
:101F7000092E052AC1F3261737074807590738F0F5
:101F80000E2E07F8E02569F0E025E0640AC0EF6353
:101F900007F8009407FADB01B9019D01DC01CA01D1
:101FA000AD01EF934AD0B3D10AD05F91552331F000
:101FB0002BED3FE049E450FD49EC63CF0895DF93FA
:101FC000DD27B92FBF7740E85FE3161617064807ED
:101FD0005B0710F4D92FEAD19F938F937F936F9370
:101FE00097D2ECE7F0E038D192D12F913F914F9109
:101FF0005F91EFD1DD2349F09058A2EA2AED3FE04E
:1020000049EC5FE3D0785D274DDFDF9180C1F7D0E9
:1020100008F481E0089554D1E3958AC10CD077C1CA
:1020200047D140F03ED130F021F45F3F19F00BC1B1
:102030005111B2C10EC18DD198F39923C9F3552323
:10204000B1F3951B550BBB27AA27621773078407AB
:1020500038F09F5F5F4F220F331F441FAA1FA9F361
:1020600033D00E2E3AF0E0E830D091505040E69553
:10207000001CCAF729D0FE2F27D0660F771F881FB4
:10208000BB1F261737074807AB07B0E809F0BB0BA3
:10209000802DBF01FF2793585F4F2AF09E3F5105C7
:1020A00068F0D1C079C15F3FECF3983EDCF38695D0
:1020B00077956795B795F7959F5FC9F7880F911D3D
:1020C0009695879597F90895E1E0660F771F881F29
:1020D000BB1F621773078407BA0720F0621B730BDC
:1020E000840BBA0BEE1F88F7E095089504D068942E
:1020F000B11152C1089535D188F09F5790F0B92F92
:102100009927B751A0F0D1F0660F771F881F991F4C
:102110001AF0BA95C9F712C0B13081F03CD1B1E0E4
:10212000089539C1672F782F8827B85F39F0B93FF4
:10213000CCF3869577956795B395D9F73EF490954E
:102140008095709561957F4F8F4F9F4F0895E894CC
:1021500009C097FB3EF490958095709561957F4FEF
:102160008F4F9F4F9923A9F0F92F96E9BB2793959D
:10217000F695879577956795B795F111F8CFFAF4AD
:10218000BB0F11F460FF1BC06F5F7F4F8F4F9F4FDE
:1021900016C0882311F096E911C0772321F09EE83C
:1021A000872F762F05C0662371F096E8862F70E0A2
:1021B00060E02AF09A95660F771F881FDAF7880F7C
:1021C0009695879597F90895DF93CF931F930F9373
:1021D0008B01EC01E9EAF0E03FD099D09801AE0123
:1021E0008B01EC0160E070E080E89FE349DE52D1B2
:1021F0009801AE010F911F91CF91DF91EAC0990F25
:102200000008550FAA0BE0E8FEEF16161706E807C0
:10221000F907C0F012161306E407F50798F0621BE1
:10222000730B840B950B39F40A2661F0232B242BB6
:10223000252B21F408950A2609F4A140A6958FEFD5
:10224000811D811D089597F99F6780E870E060E027
:1022500008959FEF80EC0895DF93CF931F930F9322
:10226000FF92EF92DF927B018C01689405C0DA2E19
:10227000EF01AFD0FE01E894A591259135914591EC
:102280005591AEF3EF010EDEFE019701A801DA943D
:1022900079F7DF90EF90FF900F911F91CF91DF9131
:1022A000089500240A9416161706180609060895BC
:1022B00000240A9412161306140605060895C9CFC1
:1022C00050D0E8F3E894E0E0BB279F57F0F02AED08
:1022D0003FE049EC06C0EE0FBB0F661F771F881F5B
:1022E00028F0B23A62077307840728F0B25A620BEB
:1022F000730B840BE3959A9572F7803830F49A95B6
:10230000BB0F661F771F881FD2F7904806C1092EA2
:102310000394000C11F4882352F0BB0F40F4BF2B40
:1023200011F460FF04C06F5F7F4F8F4F9F4F089580
:10233000EF93E0FF06C0A2EA2AED3FE049EC5FEB35
:10234000B1DDE5DF0F90039401FC9058E1EDF0E082
:10235000F7C057FD9058440F551F59F05F3F71F07B
:102360004795880F97FB991F61F09F3F79F08795FC
:102370000895121613061406551FF2CF4695F1DF85
:1023800008C0161617061806991FF1CF8695710515
:10239000610508940895E894BB2766277727CB0149
:1023A00097F908952CDF08F48FEF08959B01AC0195
:1023B00060E070E080E89FE331CE0BD0A8CF71DF02
:1023C00028F076DF18F0952309F03DCF42CF112495
:1023D000E3CFBFDFA0F3959FD1F3950F50E0551FDA
:1023E000629FF001729FBB27F00DB11D639FAA276A
:1023F000F00DB11DAA1F649F6627B00DA11D661FB9
:10240000829F2227B00DA11D621F739FB00DA11DD9
:10241000621F839FA00D611D221F749F3327A00D93
:10242000611D231F849F600D211D822F762F6A2F2F
:1024300011249F5750408AF0E1F088234AF0EE0FB4
:10244000FF1FBB1F661F771F881F91505040A9F7C1
:102450009E3F510570F0F7CE9FCF5F3FECF3983E63
:10246000DCF3869577956795B795F795E7959F5F28
:10247000C1F7FE2B880F911D9695879597F90895C2
:102480009F931EDF0F9007FCEE5F52CF11F40EF406
:10249000E0CE41C066DFD0F39923D9F3CEF39F5746
:1024A000550B87FF46D00024A0E640EA90018058F3
:1024B0005695979528F4805C660F771F881F20F04B
:1024C00026173707480730F4621B730B840B20294B
:1024D00031294A2BA69517940794202531254A27A0
:1024E00058F7660F771F881F20F026173707480711
:1024F00030F4620B730B840B200D311D411DA09530
:1025000081F7B901842F9158880F96958795089582
:102510009B01AC0152CF9F3F31F0915020F4879541
:1025200077956795B795880F911D9695879597F93B
:10253000089591505040660F771F881FD2F7089575
:102540009F938F937F936F93FF93EF939B01AC01C6
:1025500034DFEF91FF9180DE2F913F914F915F919A
:102560002CCF97FB092E07260AD077FD04D065D023
:1025700006D000201AF4709561957F4F0895F6F704
:10258000909581959F4F0895A1E21A2EAA1BBB1B1F
:10259000FD010DC0AA1FBB1FEE1FFF1FA217B3072F
:1025A000E407F50720F0A21BB30BE40BF50B661F45
:1025B000771F881F991F1A9469F760957095809509
:1025C00090959B01AC01BD01CF0108952F923F92E0
:1025D0004F925F926F927F928F929F92AF92BF9233
:1025E000CF92DF92EF92FF920F931F93CF93DF93DF
:1025F000CDB7DEB7CA1BDB0B0FB6F894DEBF0FBE3C
:10260000CDBF09942A88398848885F846E847D8488
:102610008C849B84AA84B984C884DF80EE80FD808A
:102620000C811B81AA81B981CE0FD11D0FB6F89400
:10263000DEBF0FBECDBFED010895AA1BBB1B51E14C
:1026400007C0AA1FBB1FA617B70710F0A61BB70B22
:10265000881F991F5A95A9F780959095BC01CD01C7
:102660000895283008F027E03327DA01990F311D4B
:1026700087FD916000966105710539F432602E5F27
:102680003D9330E32A95E1F708959F3F30F080387D
:102690007105610509F03C5F3C5F3D93913008F0A6
:1026A0008068911DDF93CF931F930F93FF92EF925A
:1026B000192F987F9695E92F96959695E90FFF2704
:1026C000EF5AFE4F99273327EE24FF24A701E70195
:1026D00005900894079428F4360FE71EF81E491F4A
:1026E000511D660F771F881F991F0694A1F705904B
:1026F000079428F4E70EF81E491F561FC11D770FD7
:10270000881F991F661F0694A1F70590079428F467
:10271000F80E491F561FC71FD11D880F991F661F2E
:10272000771F0694A1F70590079420F4490F561FD0
:10273000C71FD81F990F661F771F881F0694A9F718
:1027400084911095177041F0D695C7955795479588
:10275000F794E7941A95C1F7E7EFF0E068941590C5
:10276000159135916591959105907FE27395E118EA
:10277000F10A430B560BC90BD009C0F7E10CF11E4F
:10278000431F561FC91FD01D7EF4703311F48A9564
:10279000E6CFE894015030F0080F0AF40027021742
:1027A00008F4202F2395022F7A3328F079E37D93C4
:1027B0002A95E9F710C07D932A9589F60694979596
:1027C0006795379517951794E118F10A430B560B47
:1027D000C90BD00998F023957E9173957A3308F050
:1027E00070E37C932013B8F77E9170617D9330F095
:1027F000839571E37D9370E32A95E1F71124EF90BF
:10280000FF900F911F91CF91DF91992787FD9095B0
:102810000895FC010590615070400110D8F7809533
:1028200090958E0F9F1F0895FC016150704001909C
:102830000110D8F7809590958E0F9F1F08950F93E4
:102840001F93CF93DF938C01EB018B8181FF1BC022
:1028500082FF0DC02E813F818C819D812817390711
:1028600064F4E881F9810193F983E88306C0E8857F
:10287000F985802F0995892B31F48E819F810196EE
:102880009F838E8302C00FEF1FEFC801DF91CF91AE
:102890001F910F910895A0E0B0E0E1E5F4E10C9400
:1028A000F612FE013596619171918091BD01909172
:1028B000BE01AF010E9418012096E2E00C941213B1
:1028C000AEE0B0E0E6E6F4E10C94F4120D891E8966
:1028D00086E08C831A8309838FEF9FE79E838D8325
:1028E0009E01275E3F4FCE0101966F89788DA90129
:1028F0000E9418012F813885020F131FF8011082E2
:102900002E96E4E00C941013FA01AA27283051F116
:10291000203181F1E8946F936E7F6E5F7F4F8F4F10
:102920009F4FAF4FB1E03ED0B4E03CD0670F781F6F
:10293000891F9A1FA11D680F791F8A1F911DA11D54
:102940006A0F711D811D911DA11D20D009F468948D
:102950003F912AE0269F11243019305D3193DEF635
:10296000CF010895462F4770405D4193B3E00FD0EB
:10297000C9F7F6CF462F4F70405D4A3318F0495DD6
:1029800031FD4052419302D0A9F7EACFB4E0A695B9
:102990009795879577956795BA95C9F700976105DB
:1029A000710508959B01AC010A2E06945795479531
:1029B00037952795BA95C9F7620F731F841F951F26
:0829C000A01D0895F894FFCF5B
:1029C80025692C25690A00252E30662C25692C25B9
:1029D800692C25640A0D004D61696E2E63005365EC
:1029E80074736572766F2825642C25303364290A40
:1029F8000D0080131C00FF034500720100004842CF
:102A080001FF030100000034428FC2F53C0000A022
:102A1800410AD7233CFF0319FC19FC0A00010000F6
:0E2A280000000200000000BA0E0000000000D6
:00000001FF
