:100000000C94BF000C94DC000C94DC000C94DC001D
:100010000C94DC000C94DC000C94DC000C94DC00F0
:100020000C94DC000C94DC000C94DC000C94DC00E0
:100030000C94DC000C94DC000C94DC000C94DC00D0
:100040000C947A040C94DC000C94DC000C94DC001E
:100050000C94DC000C94DC000C94DC000C94DC00B0
:100060000C94DC000C94DC000C94DC000C94DC00A0
:100070000C94DC000C94DC000C94DC006E616E00CF
:10008000696E660000407A10F35A00A0724E18099B
:100090000010A5D4E80000E87648170000E40B54EF
:1000A000020000CA9A3B000000E1F50500008096BE
:1000B0009800000040420F000000A08601000000F0
:1000C000102700000000E8030000000064000000AA
:1000D00000000A00000000000100000000002C7673
:1000E000D888DC674F0823DFC1DFAE59E1B1B7968E
:1000F000E5E3E453C63AE651997696E8E6C28426EB
:10010000EB898C9B62ED407C6FFCEFBC9C9F40F2C6
:10011000BAA56FA5F490055A2AF75C936B6CF96742
:100120006DC11BFCE0E40D47FEF520E6B500D0ED07
:10013000902E0300943577050080841E080000206F
:100140004E0A000000C80C333333330F986E12830D
:100150001141EF8D2114893BE65516CFFEE6DB18E1
:10016000D1844B381BF77C1D901DA4BBE4242032A6
:1001700084725E228100C9F124ECA1E53D2711249F
:100180001FBECFEFD0E1DEBFCDBF11E0A0E0B1E0F8
:10019000E6E6FCE102C005900D92AC34B107D9F758
:1001A00011E0ACE4B1E001C01D92AF37B107E1F757
:1001B0000E947A090C94310E0C940000A1E1B0E089
:1001C000E4EEF0E00C94490C3C017F876E876A01F5
:1001D000FC0117821682838181FD03C06FEF7FEFE0
:1001E0006FC39E012F5F3F4F398B288BF301238113
:1001F000EE85FF8523FD859123FF8191FF87EE87A3
:10020000882309F45AC3853251F4EE85FF8523FD16
:10021000859123FF8191FF87EE87853229F490E055
:10022000B3010E946E0DE2CF982F10E0882499242C
:100230001032B0F49B3269F09C3228F4903251F0C5
:10024000933271F40BC09D3239F0903349F4116050
:1002500028C01260146025C0186023C0106121C03E
:1002600017FD2AC0892F80538A3078F416FF06C004
:10027000FAE09F9E902C1124980E13C03AE0839EC2
:10028000802C1124880E10620CC09E3221F416FDC1
:1002900014C3106406C09C3611F4106802C098366E
:1002A00059F4EE85FF8523FD959123FF9191FF87FA
:1002B000EE87992309F0BCCF892F8554833020F431
:1002C000812F8061905E07C0892F8556833008F0AA
:1002D0009FC1812F8F7E86FD02C076E0972E6FE34F
:1002E000F62EF822953619F4F0E4FF2A07C0963668
:1002F00019F420E8F22A02C091109A94F7FE0AC07D
:100300003BE3391518F45CE3B52E02C0B92CB39465
:1003100027E009C047E0491520F4BB2447E0942EAC
:10032000F7CF292DBB24C60104969D878C87F60143
:100330006081718182819381AE014F5F5F4F0B2D90
:100340000E94800C6C010981202E332400FF04C020
:1003500003FD02C01DE209C0F1FE02C01BE205C0A0
:10036000F2FC02C010E001C010E2C1018C7090707C
:10037000892BB9F1112311F483E001C084E08815C1
:1003800010F088240AC0881AF3FC07C080E290E0CD
:10039000B3010E946E0D8A94C9F7112329F0812FB1
:1003A00090E0B3010E946E0D23FE03C00CE710E045
:1003B0000EC000E810E00BC0E114F10409F0805217
:1003C00090E0B3010E946E0D0F5F1F4F05C0EF2C30
:1003D000FF24F0E1EF22FF24F8018491882361F7E4
:1003E00014C1F7FE12C0BC0C24FE04C08A81813304
:1003F00009F4BA941B141CF0BB24B3942DC0F8E08C
:10040000FB1550F538E0B32E27C0F6FC25C0892D2A
:1004100090E08C159D054CF02CEFC2162FEFD20604
:1004200024F030E8F32A01C09A94992049F0E2E0E0
:10043000F0E0EC0FFD1FE90DF11D80818033A1F389
:10044000F7FE0AC0B92CB394892D90E0C816D906DE
:1004500014F0992401C09C18F7FC03C025E030E09B
:1004600009C01C141D041CF021E030E003C09601FB
:100470002F5F3F4F112311F02F5F3F4F992029F03D
:10048000892D90E00196280F391F882D90E02817BC
:10049000390714F0882401C0821A4F2C5524C20158
:1004A00089709070892B39F008C080E290E0B30128
:1004B0000E946E0D8A948820C1F7112329F0812FA4
:1004C00090E0B3010E946E0D43FE07C008C080E3B8
:1004D00090E0B3010E946E0D8A948820C1F7F7FE68
:1004E00046C08601D7FE02C000E010E07601089405
:1004F000E11CF11CE01AF10A41E050E04C0F5D1FD5
:10050000E40EF51E26014B185108892D90E0AA240F
:10051000BB24A81AB90A5FEF0F3F150729F48EE232
:1005200090E0B3010E946E0DC016D10634F0401663
:1005300051061CF4F701808101C080E30150104096
:100540000894E11CF11C0A151B052CF090E0B30186
:100550000E946E0DE0CF0C151D0539F49A8196337B
:1005600018F4953311F424FE81E390E04BC08A81A6
:10057000813309F00F7E90E0B3010E946E0D992047
:10058000A1F08EE290E0B3010E946E0D12E0E1E076
:10059000F0E0EC0FFD1FE10FF11D1F5F808190E087
:1005A000B3010E946E0D9A9491F744FC03C085E656
:1005B00090E002C085E490E0B3010E946E0DD7FC8C
:1005C00005C0C114D10441F404FF06C0D094C19405
:1005D000D108D3948DE201C08BE290E0B3010E9478
:1005E0006E0D80E305C08F5F26EF3FEFC20ED31E76
:1005F0003AE0C316D104BCF790E0B3010E946E0D3F
:10060000C601C096B3010E946E0DCC84DD8452C138
:10061000933631F0933799F0933509F059C023C0E0
:10062000F601808189835E010894A11CB11C22E03F
:1006300030E0C20ED31E21E0E22EF12C12C0F601F2
:10064000A080B18016FD03C06FEF7FEF02C0692D5F
:1006500070E022E030E0C20ED31EC5010E94630D9F
:100660007C011F7713C0F601A080B18016FD03C086
:100670006FEF7FEF02C0692D70E022E030E0C20E24
:10068000D31EC5010E94580D7C01106813FF07C0DE
:100690001BC080E290E0B3010E946E0D8A94882D09
:1006A00090E0E816F906A8F30FC0F50117FD859153
:1006B00017FF81915F0190E0B3010E946E0D8110E0
:1006C0008A940894E108F108E114F10471F7F2C08A
:1006D000943611F0993689F517FF08C0F60120818C
:1006E00031814281538184E090E00AC0F60180812B
:1006F00091819C01442737FD4095542F82E090E082
:10070000C80ED91E9FE6F92EF12257FF09C0509559
:100710004095309521953F4F4F4F5F4F90E8F92A14
:10072000CA01B901AE014F5F5F4F2AE030E00E947D
:10073000D30DE82EE889EE1A41C0953721F41F7ECB
:100740002AE030E01CC0197F9F3661F0903720F41A
:10075000983509F0B2C00FC0903739F0983709F0DA
:10076000ACC004C028E030E00AC0106114FD146081
:1007700020E130E004C014FD166020E132E017FFF4
:1007800008C0F601608171818281938144E050E06C
:1007900008C0F60180819181BC0180E090E042E0D8
:1007A00050E0C40ED51EAE014F5F5F4F0E94D30DC7
:1007B000E82E5889E51A8FE7F82EF122F6FE0BC0D5
:1007C0008EEFF822E91438F4F4FE07C0F2FC05C0FD
:1007D0009FEEF92202C01E2D01C0192DF4FE0DC09E
:1007E000FE01EE0DF11D8081803319F4E9EEFE2249
:1007F00008C01F5FF2FE05C003C08F2D867809F088
:100800001F5F0F2DF3FC14C0F0FE0FC0181510F081
:100810009E2C0BC09E2C980C911A182D06C080E2BD
:1008200090E0B3010E946E0D1F5F1815C0F304C065
:10083000181510F4811A01C0882404FF0FC080E34A
:1008400090E0B3010E946E0D02FF1DC001FD03C0C8
:1008500088E790E00EC088E590E00BC0802F867896
:1008600091F001FF02C08BE201C080E2F7FC8DE253
:1008700090E0B3010E946E0D06C080E390E0B301EA
:100880000E946E0D9A94E914C0F3EA94E1E0F0E05E
:10089000EC0FFD1FEE0DF11D808190E0B3010E9471
:1008A0006E0DEE2091F706C080E290E0B3010E9449
:1008B0006E0D8A948820C1F799CCF3016681778107
:1008C000CB016196E2E10C94650C80914E01909110
:1008D0004F01019721F410924F0110924E0108959B
:1008E00082E080936E0014BC85E085BD84EB87BDFB
:1008F000789408951F920F920FB60F9211248F9340
:100900009F9381E090E090934F0180934E019F91DF
:100910008F910F900FBE0F901F9018958064809359
:100920007C00EAE7F0E086E8808310927B0080E8B4
:1009300080937E00808180648083089580648093AA
:100940007C0080917A00806480937A0080917A00A4
:1009500084FFFCCF9091780080917900382F20E0BF
:10096000290F311DC9010895AF92BF92CF92DF9236
:10097000EF92FF920F931F937B018C01411551055C
:1009800009F06CC080E090E00E949E04AA2797FDC9
:10099000A095BA2FBC01CD010E94100B9B01AC01A8
:1009A000C801B7010E940C0A7B018C012091500103
:1009B0003091510140915201509153010E940D0A12
:1009C0005B016C016093500170935101809352015F
:1009D00090935301C801B7012091580130915901FA
:1009E00040915A0150915B010E94C40B7B018C0124
:1009F000C601B50120915C0130915D0140915E011D
:100A000050915F010E94C40B9B01AC01C801B7016A
:100A10000E940D0A7B018C01609164017091650157
:100A2000882777FD8095982F0E94100B20916001F8
:100A30003091610140916201509163010E94C40BA9
:100A40009B01AC01C801B7010E940D0A0E94DD0A9A
:100A50009B01709365016093640171C04130510541
:100A600019F020E030E06BC081E090E00E949E042D
:100A7000AA2797FDA095BA2FBC01CD010E94100BAB
:100A80009B01AC01C801B7010E940C0A7B018C01DB
:100A900020915401309155014091560150915701D8
:100AA0000E940D0A5B016C01609354017093550123
:100AB0008093560190935701C801B70120915801C6
:100AC0003091590140915A0150915B010E94C40B31
:100AD0007B018C01C601B50120915C0130915D0163
:100AE00040915E0150915F010E94C40B9B01AC01DB
:100AF000C801B7010E940D0A7B018C01609166015B
:100B000070916701882777FD8095982F0E94100BC0
:100B10002091600130916101409162015091630127
:100B20000E94C40B9B01AC01C801B7010E940D0AD1
:100B30000E94DD0A9B017093670160936601C90101
:100B40001F910F91FF90EF90DF90CF90BF90AF90EB
:100B50000895AA2797FDA095BA2FBC01CD010E9448
:100B6000100B20E030E044EB52E40E94C40B20E084
:100B700030E04EEB53E40E94750A20E030E044E39D
:100B800052E40E940C0A0895AA2797FDA095BA2F57
:100B9000BC01CD010E94100B23EC35EF48E950E475
:100BA0000E94C40B0895982F84E0603078071CF0F1
:100BB0006FEF73E004C077FF02C060E070E08091E7
:100BC0002A00806180932A0080912B0080618093AD
:100BD0002B0080912B008F7E80932B009F70906361
:100BE0009EBD0DB407FEFDCF8EB5CB0195958795C3
:100BF000959587958EBD0DB407FEFDCF8EB586E029
:100C0000660F771F8A95E1F76EBD0DB407FEFDCF25
:100C10008EB5089560914C0170914D0180E090E097
:100C20000E94D30560912B0170912C0181E090E02E
:100C30000E94D30580E094EB0197F1F780912D019C
:100C400090912E0140914C0150914D0120912B012A
:100C500030912C010197A1F4CA01039690934D01A4
:100C600080934C012350304030932C0120932B0172
:100C700081509440CCF010922E0110922D010895D5
:100C8000CA01039790934D0180934C012D5F3F4F14
:100C900030932C0120932B0197FF06C081E090E058
:100CA00090932E0180932D010895CF92DF92EF92C1
:100CB000FF920F931F93CF93DF93EC017B0184E0AE
:100CC000C030D8071CF0CFEFD3E006C08CEFC130A6
:100CD000D80714F4C1E0DCEF6E010D2D0095001F64
:100CE0000027001F10E0E114F10409F411E00023D3
:100CF00069F0112359F080E090E0BE010E94D30515
:100D000081E090E060E070E00E94D305DD24D7FF31
:100D100012C0DD24D394112371F080E090E060E0F4
:100D200070E00E94D305662777276C1B7D0B81E05E
:100D300090E00E94D30510E081E0E816F10409F488
:100D400011E0002369F0112359F082E090E0BE0128
:100D50000E94D30583E090E060E070E00E94D3053C
:100D6000DD2081F0112371F082E090E060E070E01E
:100D70000E94D305662777276C1B7D0B83E090E0EC
:100D80000E94D305DF91CF911F910F91FF90EF90BB
:100D9000DF90CF900895809124008F7B8093240072
:100DA000809125008F7B80932500809124008062B4
:100DB00080932400809125008F7D80932500809171
:100DC0002400806880932400809125008F77809391
:100DD0002500249A82E58CBD1DBC089582E090E038
:100DE0000E948E040E94CB0608958EBD0DB407FEAE
:100DF000FDCF8EB5089582E080936E0014BC83E031
:100E000085BD82E187BD78949FEF9AB98FE08BB959
:100E100097B998B914B881E085B987E480937C00CC
:100E2000EAE7F0E086E8808310927B0080E8809318
:100E30007E008081806480830895AF92BF92CF92BC
:100E4000DF92EF92FF920F931F93DF93CF93CDB773
:100E5000DEB7C05DD7400FB6F894DEBF0FBECDBF82
:100E600082E085BD10926F0110926E016E010894B0
:100E7000C11CD11CF601BE016B507E4F22C0809177
:100E80006E0190916F0183579140CCF380917A006D
:100E900084FFF5CF209178009091790080917A00BD
:100EA000806480937A00592F40E0CA01820F911D1F
:100EB0008193919310926F0110926E0188B1809589
:100EC00088B9E617F707D9F6EE24FF2480E0A82EAC
:100ED00081E0B82E00D000D000D00DB71EB70F5F54
:100EE0001F4FEDB7FEB7B282A182F801F382E28212
:100EF000F601619171916F01882777FD8095982F98
:100F00000E94100B20E030E44CE955E40E94C40B31
:100F100020E030EC4FE754E40E94750A0E94DD0A9D
:100F2000F801758364830E949A0D0894E11CF11CFA
:100F30008DB79EB706960FB6F8949EBF0FBE8DBFB5
:100F40009AEFE916F10431F683E085BD10926F0146
:100F500010926E01C053D84F0FB6F894DEBF0FBE8B
:100F6000CDBFCF91DF911F910F91FF90EF90DF9058
:100F7000CF90BF90AF900895AF92BF92CF92DF9283
:100F8000EF92FF920F931F9318990FC08CE49DE18D
:100F9000909334018093330181E090E0909371014C
:100FA0008093700181E08093760119990FC087E7E3
:100FB00091E0909334018093330184E190E0909329
:100FC00071018093700181E0809376011A990FC0BE
:100FD0008BE490E0909334018093330184E690E0B9
:100FE000909371018093700181E0809376011B9949
:100FF00002C00E941D0780917601882309F452C126
:1010000080913901882331F0109239010E947309CF
:101010008093780180917801833719F481E080937F
:10102000770180916A0190916B01892B09F04FC083
:1010300060916E0170916F01882777FD8095982FE0
:101040000E94100B5B016C016091330170913401BF
:10105000882777FD8095982F0E94100B9B01AC018B
:101060000E940D0A7B018C0160E070E088EC92E444
:10107000209135013091360140913701509138016E
:101080000E940C0A9B01AC01C801B7010E94C40B6D
:1010900020E030E048EC52E40E94750A9B01AC016C
:1010A000C601B5010E94C00B18168CF410926F0196
:1010B00010926E0116BC8FEF88B981E090E090939A
:1010C00073018093720190936B0180936A01809108
:1010D0006A0190916B01019709F040C060916E0127
:1010E00070916F01882777FD8095982F0E94100BD3
:1010F0007B018C016091330170913401882777FD69
:101100008095982F0E94100B9B01AC010E940D0A44
:1011100020913501309136014091370150913801CD
:101120000E94C40B20E030E048EC52E40E94750AB3
:101130009B01AC01C801B7010E94C00B181674F4E2
:1011400010926F0110926E0116BC18B810927301C4
:101150001092720110926B0110926A0180917A00D4
:1011600084FF61C080916C0190916D018D5D95400F
:101170000CF459C03091780020917900722F60E012
:10118000630F711D7093750160937401882777FD5B
:101190008095982F0E94100B20EF37EA46EC5DE314
:1011A0000E94C40B60933501709336018093370120
:1011B0009093380120E030E040E251E40E94710A4F
:1011C000882364F480E090E0A0E2B1E480933501EC
:1011D00090933601A0933701B093380160913501A7
:1011E00070913601809137019091380120E030E014
:1011F00044EB52E40E94C00B181664F480E090E0C7
:10120000A4EBB2E48093350190933601A0933701AB
:10121000B093380110926D0110926C0180917A00A8
:10122000806480937A00809177018823D9F18DB70B
:101230009EB70C970FB6F8949EBF0FBE8DBFEDB74B
:10124000FEB7319687E091E0ADB7BEB712969C939A
:101250008E9311978091350190913601A0913701BD
:10126000B091380182839383A483B5838091700108
:10127000909171019783868380917201909173019F
:1012800091878087809174019091750193878287FF
:101290000E949A0D8DB79EB70C960FB6F8949EBF1C
:1012A0000FBE8DBF1F910F91FF90EF90DF90CF90F9
:1012B000BF90AF9008951092CD0089E08093CC004C
:1012C000E9ECF0E0808188618083EAECF0E08081E5
:1012D000866080830895982F8091C80085FFFCCF99
:1012E0009093CE0008958091C80087FFFCCF809135
:1012F000CE0008950E94870960E072EC81E090E0E2
:101300000E945B090E94FB060E94BC07FDCF8EE392
:1013100091E090937C0180937B0160E072EC81E02E
:1013200090E00E94990908950E946B0980E090E086
:1013300008959B01AC0184E0220F331F441F551F09
:101340008A95D1F760E070E489E191E00E94270C72
:10135000215030403093C5002093C40088E1809331
:10136000C10086E08093C2000895982F8091C0004C
:1013700085FFFCCF9093C6000895FC0107C08091C3
:10138000C00085FFFCCF9093C600319690819923D1
:10139000B1F708950F931F93DF93CF93CDB7DEB7C7
:1013A00064970FB6F894DEBF0FBECDBF2DB73EB722
:1013B000285030400FB6F8943EBF0FBE2DBFEDB79A
:1013C000FEB731968E010F5F1F4FADB7BEB71296B5
:1013D0001C930E93119727E131E033832283958389
:1013E0008483778366830E94AF0D2DB73EB7285F55
:1013F0003F4F0FB6F8943EBF0FBE2DBFC8010E94ED
:10140000BD0964960FB6F894DEBF0FBECDBFCF9175
:10141000DF911F910F9108955058BB27AA270ED036
:1014200075C166D130F06BD120F031F49F3F11F4DB
:101430001EF45BC10EF4E095E7FB51C1E92F77D1B3
:1014400080F3BA17620773078407950718F071F4E1
:101450009EF58FC10EF4E0950B2EBA2FA02D0B0137
:10146000B90190010C01CA01A0011124FF27591BE9
:1014700099F0593F50F4503E68F11A16F040A22FEF
:10148000232F342F4427585FF3CF46953795279560
:10149000A795F0405395C9F77EF41F16BA0B620B5F
:1014A000730B840BBAF09150A1F0FF0FBB1F661FA6
:1014B000771F881FC2F70EC0BA0F621F731F841FE9
:1014C00048F4879577956795B795F7959E3F08F00F
:1014D000B3CF9395880F08F09927EE0F97958795CE
:1014E0000895D9D008F481E008950CD00FC107D138
:1014F00040F0FED030F021F45F3F19F0F0C0511100
:1015000039C1F3C014D198F39923C9F35523B1F32A
:10151000951B550BBB27AA2762177307840738F062
:101520009F5F5F4F220F331F441FAA1FA9F333D0C1
:101530000E2E3AF0E0E830D091505040E695001C75
:10154000CAF729D0FE2F27D0660F771F881FBB1F31
:10155000261737074807AB07B0E809F0BB0B802D0B
:10156000BF01FF2793585F4F2AF09E3F510568F057
:10157000B6C000C15F3FECF3983EDCF386957795EB
:101580006795B795F7959F5FC9F7880F911D969559
:10159000879597F90895E1E0660F771F881FBB1FB5
:1015A000621773078407BA0720F0621B730B840B62
:1015B000BA0BEE1F88F7E095089504D06894B11136
:1015C000D9C00895BCD088F09F5790F0B92F9927C3
:1015D000B751A0F0D1F0660F771F881F991F1AF03E
:1015E000BA95C9F712C0B13081F0C3D0B1E0089507
:1015F000C0C0672F782F8827B85F39F0B93FCCF388
:10160000869577956795B395D9F73EF49095809533
:10161000709561957F4F8F4F9F4F0895E89409C053
:1016200097FB3EF490958095709561957F4F8F4F15
:101630009F4F9923A9F0F92F96E9BB279395F6952B
:10164000879577956795B795F111F8CFFAF4BB0FA9
:1016500011F460FF1BC06F5F7F4F8F4F9F4F16C00D
:10166000882311F096E911C0772321F09EE8872F97
:10167000762F05C0662371F096E8862F70E060E053
:101680002AF09A95660F771F881FDAF7880F9695CC
:10169000879597F90895990F0008550FAA0BE0E870
:1016A000FEEF16161706E807F907C0F01216130624
:1016B000E407F50798F0621B730B840B950B39F464
:1016C0000A2661F0232B242B252B21F408950A26CA
:1016D00009F4A140A6958FEF811D811D089597F90A
:1016E0009F6780E870E060E008959FEF80EC0895C8
:1016F00000240A94161617061806090608950024F1
:101700000A9412161306140605060895092E03946A
:10171000000C11F4882352F0BB0F40F4BF2B11F4DE
:1017200060FF04C06F5F7F4F8F4F9F4F089557FD3D
:101730009058440F551F59F05F3F71F04795880F3F
:1017400097FB991F61F09F3F79F0879508951216D6
:1017500013061406551FF2CF4695F1DF08C0161682
:1017600017061806991FF1CF869571056105089433
:101770000895E894BB2766277727CB0197F908954A
:101780008ADF08F48FEF08950BD0C0CFB1DF28F0C7
:10179000B6DF18F0952309F0A2CFA7CF1124EACF26
:1017A000C6DFA0F3959FD1F3950F50E0551F629FC0
:1017B000F001729FBB27F00DB11D639FAA27F00DAA
:1017C000B11DAA1F649F6627B00DA11D661F829FD1
:1017D0002227B00DA11D621F739FB00DA11D621FB6
:1017E000839FA00D611D221F749F3327A00D611DD3
:1017F000231F849F600D211D822F762F6A2F1124B5
:101800009F5750408AF0E1F088234AF0EE0FFF1F07
:10181000BB1F661F771F881F91505040A9F79E3F3E
:10182000510570F05CCFA6CF5F3FECF3983EDCF340
:10183000869577956795B795F795E7959F5FC1F77B
:10184000FE2B880F911D9695879597F90895A1E233
:101850001A2EAA1BBB1BFD010DC0AA1FBB1FEE1F2A
:10186000FF1FA217B307E407F50720F0A21BB30B75
:10187000E40BF50B661F771F881F991F1A9469F7F1
:1018800060957095809590959B01AC01BD01CF014D
:1018900008952F923F924F925F926F927F928F9214
:1018A0009F92AF92BF92CF92DF92EF92FF920F93EF
:1018B0001F93CF93DF93CDB7DEB7CA1BDB0B0FB6F9
:1018C000F894DEBF0FBECDBF09942A8839884888B6
:1018D0005F846E847D848C849B84AA84B984C8844C
:1018E000DF80EE80FD800C811B81AA81B981CE0F43
:1018F000D11D0FB6F894DEBF0FBECDBFED01089528
:10190000283008F027E03327DA01990F311D87FDD1
:10191000916000966105710539F432602E5F3D9348
:1019200030E32A95E1F708959F3F30F08038710544
:10193000610509F03C5F3C5F3D93913008F08068A1
:10194000911DDF93CF931F930F93FF92EF92192F67
:10195000987F9695E92F96959695E90FFF27E25285
:10196000FF4F99273327EE24FF24A701E7010590B5
:101970000894079428F4360FE71EF81E491F511DDE
:10198000660F771F881F991F0694A1F7059007948B
:1019900028F4E70EF81E491F561FC11D770F881F38
:1019A000991F661F0694A1F70590079428F4F80E76
:1019B000491F561FC71FD11D880F991F661F771F0C
:1019C0000694A1F70590079420F4490F561FC71FEE
:1019D000D81F990F661F771F881F0694A9F7849157
:1019E0001095177041F0D695C79557954795F79480
:1019F000E7941A95C1F7E4E8F0E068941590159122
:101A000035916591959105907FE27395E118F10A02
:101A1000430B560BC90BD009C0F7E10CF11E431F55
:101A2000561FC91FD01D7EF4703311F48A95E6CF7E
:101A3000E894015030F0080F0AF40027021708F468
:101A4000202F2395022F7A3328F079E37D932A956E
:101A5000E9F710C07D932A9589F6069497956795C6
:101A6000379517951794E118F10A430B560BC90BDC
:101A7000D00998F023957E9173957A3308F070E33E
:101A80007C932013B8F77E9170617D9330F083953D
:101A900071E37D9370E32A95E1F71124EF90FF90B5
:101AA0000F911F91CF91DF91992787FD9095089510
:101AB000FC010590615070400110D8F78095909519
:101AC0008E0F9F1F0895FC0161507040019001101E
:101AD000D8F7809590958E0F9F1F08950F931F93B1
:101AE000CF93DF938C01EB018B8181FF1BC082FFC1
:101AF0000DC02E813F818C819D812817390764F4A8
:101B0000E881F9810193F983E88306C0E885F985C6
:101B1000802F0995892B31F48E819F8101969F83B7
:101B20008E8302C00FEF1FEFC801DF91CF911F918D
:101B30000F910895A0E0B0E0E0EAFDE00C94590CAC
:101B4000FE0135966191719180917B0190917C01AC
:101B5000AF010E94DE002096E2E00C94750CAEE02E
:101B6000B0E0E5EBFDE00C94570C0D891E8986E092
:101B70008C831A8309838FEF9FE79E838D839E0159
:101B8000275E3F4FCE0101966F89788DA9010E9493
:101B9000DE002F813885020F131FF80110822E9668
:101BA000E4E00C94730CFA01AA27283051F120319B
:101BB00081F1E8946F936E7F6E5F7F4F8F4F9F4FE1
:101BC000AF4FB1E03ED0B4E03CD0670F781F891F23
:101BD0009A1FA11D680F791F8A1F911DA11D6A0FF1
:101BE000711D811D911DA11D20D009F468943F91A4
:101BF0002AE0269F11243019305D3193DEF6CF01A3
:101C00000895462F4770405D4193B3E00FD0C9F768
:101C1000F6CF462F4F70405D4A3318F0495D31FDD5
:101C20004052419302D0A9F7EACFB4E0A695979528
:101C3000879577956795BA95C9F7009761057105FE
:101C400008959B01AC010A2E069457954795379548
:101C50002795BA95C9F7620F731F841F951FA01DA2
:061C60000895F894FFCF87
:101C660025692C25690A00252E30662C25692C2528
:101C7600692C25640A0D00536574736572766F28A6
:101C860025642C25303364290A0D00FF030100FF6B
:101C96000345007201000048420180131C00000049
:0C1CA60000020000000094090000000093
:00000001FF
